:100000000C9434000C943E000C943E000C943E0082
:100010000C943E000C943E000C943E000C943E0068
:100020000C943E000C943E000C943E000C943E0058
:100030000C943E000C943E000C943E000C943E0048
:100040000C943E000C943E000C943E000C943E0038
:100050000C943E000C943E000C943E000C943E0028
:100060000C943E000C943E0011241FBECFEFD8E04C
:10007000DEBFCDBF0E945C000C946A000C940000AF
:100080001092B90088E48093B800089584EA8093C0
:10009000BC008091BC0087FFFCCF08958093BB001B
:1000A00084E88093BC008091BC0087FFFCCF08955A
:1000B00084E98093BC0008950E9440000E9446009D
:1000C00080E40E944E008AEA0E944E0084E98093F8
:0800D000BC00FFCFF894FFCF44
:00000001FF
