:100000000C9434000C943E000C943E000C943E0082
:100010000C943E000C943E000C943E000C943E0068
:100020000C943E000C943E000C943E000C943E0058
:100030000C943E000C943E000C943E000C943E0048
:100040000C943E000C943E000C943E000C943E0038
:100050000C943E000C943E000C943E000C943E0028
:100060000C943E000C943E0011241FBECFEFD8E04C
:10007000DEBFCDBF0E9462000C9498000C9400007B
:100080009093C5008093C40088E18093C100E2ECA6
:10009000F0E080818660808308959091C00095FF94
:1000A000FCCF8093C600089584B18C6284B92498F3
:1000B00081E58CBD2A9A08958EBD0DB407FEFDCF53
:1000C0008EB50895CF93DF9300D000D0CDB7DEB7C3
:1000D00087E690E00E9440000E9454002A9A19820C
:1000E0001A821B821C8289819A81AB81BC818031FA
:1000F0009742A105B10584F02A9883E00E945C0034
:1001000080E00E945C0080E00E945C008FEF0E9413
:100110005C000E944D00FACF89819A81AB81BC813D
:100120000196A11DB11D89839A83AB83BC83DBCF6C
:04013000F894FFCF71
:00000001FF
